{
	"data": {
		"bytecode": {
			"linkReferences": {},
			"object": "60a06040524663ffffffff1660809063ffffffff168152503480156021575f5ffd5b506080516106846100405f395f818160af015261013701526106845ff3fe608060405234801561000f575f5ffd5b506004361061003f575f3560e01c806385e1f4d014610043578063d43cd39514610061578063fe6ad6c61461007d575b5f5ffd5b61004b6100ad565b6040516100589190610265565b60405180910390f35b61007b600480360381019061007691906103fe565b6100d1565b005b6100976004803603810190610092919061046a565b610222565b6040516100a491906104af565b60405180910390f35b7f000000000000000000000000000000000000000000000000000000000000000081565b5f5f8381526020019081526020015f205f9054906101000a900460ff161561012e576040517f08c379a000000000000000000000000000000000000000000000000000000000815260040161012590610522565b60405180910390fd5b5f8260e01c90507f000000000000000000000000000000000000000000000000000000000000000063ffffffff168163ffffffff16146101a3576040517f08c379a000000000000000000000000000000000000000000000000000000000815260040161019a9061058a565b60405180910390fd5b60015f5f8581526020019081526020015f205f6101000a81548160ff021916908315150217905550833373ffffffffffffffffffffffffffffffffffffffff167f941876eaeb3c2aecc9762b7896052e2c4aa9cd0fa30da5f973b4a648a91670024285604051610214929190610620565b60405180910390a350505050565b5f5f5f8381526020019081526020015f205f9054906101000a900460ff169050919050565b5f63ffffffff82169050919050565b61025f81610247565b82525050565b5f6020820190506102785f830184610256565b92915050565b5f604051905090565b5f5ffd5b5f5ffd5b5f819050919050565b6102a18161028f565b81146102ab575f5ffd5b50565b5f813590506102bc81610298565b92915050565b5f5ffd5b5f5ffd5b5f601f19601f8301169050919050565b7f4e487b71000000000000000000000000000000000000000000000000000000005f52604160045260245ffd5b610310826102ca565b810181811067ffffffffffffffff8211171561032f5761032e6102da565b5b80604052505050565b5f61034161027e565b905061034d8282610307565b919050565b5f67ffffffffffffffff82111561036c5761036b6102da565b5b610375826102ca565b9050602081019050919050565b828183375f83830152505050565b5f6103a261039d84610352565b610338565b9050828152602081018484840111156103be576103bd6102c6565b5b6103c9848285610382565b509392505050565b5f82601f8301126103e5576103e46102c2565b5b81356103f5848260208601610390565b91505092915050565b5f5f5f6060848603121561041557610414610287565b5b5f610422868287016102ae565b9350506020610433868287016102ae565b925050604084013567ffffffffffffffff8111156104545761045361028b565b5b610460868287016103d1565b9150509250925092565b5f6020828403121561047f5761047e610287565b5b5f61048c848285016102ae565b91505092915050565b5f8115159050919050565b6104a981610495565b82525050565b5f6020820190506104c25f8301846104a0565b92915050565b5f82825260208201905092915050565b7f7369676e617475726520616c7265616479207075626c697368656400000000005f82015250565b5f61050c601b836104c8565b9150610517826104d8565b602082019050919050565b5f6020820190508181035f83015261053981610500565b9050919050565b7f636861696e206964206d69736d617463680000000000000000000000000000005f82015250565b5f6105746011836104c8565b915061057f82610540565b602082019050919050565b5f6020820190508181035f8301526105a181610568565b9050919050565b5f819050919050565b6105ba816105a8565b82525050565b5f81519050919050565b5f82825260208201905092915050565b8281835e5f83830152505050565b5f6105f2826105c0565b6105fc81856105ca565b935061060c8185602086016105da565b610615816102ca565b840191505092915050565b5f6040820190506106335f8301856105b1565b818103602083015261064581846105e8565b9050939250505056fea264697066735822122010cc9d7ff8c000d5f975a52678abcb27b9f7881dbcb3eef3c60e72f8341ee6fb64736f6c634300081e0033",
			"opcodes": "PUSH1 0xA0 PUSH1 0x40 MSTORE CHAINID PUSH4 0xFFFFFFFF AND PUSH1 0x80 SWAP1 PUSH4 0xFFFFFFFF AND DUP2 MSTORE POP CALLVALUE DUP1 ISZERO PUSH1 0x21 JUMPI PUSH0 PUSH0 REVERT JUMPDEST POP PUSH1 0x80 MLOAD PUSH2 0x684 PUSH2 0x40 PUSH0 CODECOPY PUSH0 DUP2 DUP2 PUSH1 0xAF ADD MSTORE PUSH2 0x137 ADD MSTORE PUSH2 0x684 PUSH0 RETURN INVALID PUSH1 0x80 PUSH1 0x40 MSTORE CALLVALUE DUP1 ISZERO PUSH2 0xF JUMPI PUSH0 PUSH0 REVERT JUMPDEST POP PUSH1 0x4 CALLDATASIZE LT PUSH2 0x3F JUMPI PUSH0 CALLDATALOAD PUSH1 0xE0 SHR DUP1 PUSH4 0x85E1F4D0 EQ PUSH2 0x43 JUMPI DUP1 PUSH4 0xD43CD395 EQ PUSH2 0x61 JUMPI DUP1 PUSH4 0xFE6AD6C6 EQ PUSH2 0x7D JUMPI JUMPDEST PUSH0 PUSH0 REVERT JUMPDEST PUSH2 0x4B PUSH2 0xAD JUMP JUMPDEST PUSH1 0x40 MLOAD PUSH2 0x58 SWAP2 SWAP1 PUSH2 0x265 JUMP JUMPDEST PUSH1 0x40 MLOAD DUP1 SWAP2 SUB SWAP1 RETURN JUMPDEST PUSH2 0x7B PUSH1 0x4 DUP1 CALLDATASIZE SUB DUP2 ADD SWAP1 PUSH2 0x76 SWAP2 SWAP1 PUSH2 0x3FE JUMP JUMPDEST PUSH2 0xD1 JUMP JUMPDEST STOP JUMPDEST PUSH2 0x97 PUSH1 0x4 DUP1 CALLDATASIZE SUB DUP2 ADD SWAP1 PUSH2 0x92 SWAP2 SWAP1 PUSH2 0x46A JUMP JUMPDEST PUSH2 0x222 JUMP JUMPDEST PUSH1 0x40 MLOAD PUSH2 0xA4 SWAP2 SWAP1 PUSH2 0x4AF JUMP JUMPDEST PUSH1 0x40 MLOAD DUP1 SWAP2 SUB SWAP1 RETURN JUMPDEST PUSH32 0x0 DUP2 JUMP JUMPDEST PUSH0 PUSH0 DUP4 DUP2 MSTORE PUSH1 0x20 ADD SWAP1 DUP2 MSTORE PUSH1 0x20 ADD PUSH0 KECCAK256 PUSH0 SWAP1 SLOAD SWAP1 PUSH2 0x100 EXP SWAP1 DIV PUSH1 0xFF AND ISZERO PUSH2 0x12E JUMPI PUSH1 0x40 MLOAD PUSH32 0x8C379A000000000000000000000000000000000000000000000000000000000 DUP2 MSTORE PUSH1 0x4 ADD PUSH2 0x125 SWAP1 PUSH2 0x522 JUMP JUMPDEST PUSH1 0x40 MLOAD DUP1 SWAP2 SUB SWAP1 REVERT JUMPDEST PUSH0 DUP3 PUSH1 0xE0 SHR SWAP1 POP PUSH32 0x0 PUSH4 0xFFFFFFFF AND DUP2 PUSH4 0xFFFFFFFF AND EQ PUSH2 0x1A3 JUMPI PUSH1 0x40 MLOAD PUSH32 0x8C379A000000000000000000000000000000000000000000000000000000000 DUP2 MSTORE PUSH1 0x4 ADD PUSH2 0x19A SWAP1 PUSH2 0x58A JUMP JUMPDEST PUSH1 0x40 MLOAD DUP1 SWAP2 SUB SWAP1 REVERT JUMPDEST PUSH1 0x1 PUSH0 PUSH0 DUP6 DUP2 MSTORE PUSH1 0x20 ADD SWAP1 DUP2 MSTORE PUSH1 0x20 ADD PUSH0 KECCAK256 PUSH0 PUSH2 0x100 EXP DUP2 SLOAD DUP2 PUSH1 0xFF MUL NOT AND SWAP1 DUP4 ISZERO ISZERO MUL OR SWAP1 SSTORE POP DUP4 CALLER PUSH20 0xFFFFFFFFFFFFFFFFFFFFFFFFFFFFFFFFFFFFFFFF AND PUSH32 0x941876EAEB3C2AECC9762B7896052E2C4AA9CD0FA30DA5F973B4A648A9167002 TIMESTAMP DUP6 PUSH1 0x40 MLOAD PUSH2 0x214 SWAP3 SWAP2 SWAP1 PUSH2 0x620 JUMP JUMPDEST PUSH1 0x40 MLOAD DUP1 SWAP2 SUB SWAP1 LOG3 POP POP POP POP JUMP JUMPDEST PUSH0 PUSH0 PUSH0 DUP4 DUP2 MSTORE PUSH1 0x20 ADD SWAP1 DUP2 MSTORE PUSH1 0x20 ADD PUSH0 KECCAK256 PUSH0 SWAP1 SLOAD SWAP1 PUSH2 0x100 EXP SWAP1 DIV PUSH1 0xFF AND SWAP1 POP SWAP2 SWAP1 POP JUMP JUMPDEST PUSH0 PUSH4 0xFFFFFFFF DUP3 AND SWAP1 POP SWAP2 SWAP1 POP JUMP JUMPDEST PUSH2 0x25F DUP2 PUSH2 0x247 JUMP JUMPDEST DUP3 MSTORE POP POP JUMP JUMPDEST PUSH0 PUSH1 0x20 DUP3 ADD SWAP1 POP PUSH2 0x278 PUSH0 DUP4 ADD DUP5 PUSH2 0x256 JUMP JUMPDEST SWAP3 SWAP2 POP POP JUMP JUMPDEST PUSH0 PUSH1 0x40 MLOAD SWAP1 POP SWAP1 JUMP JUMPDEST PUSH0 PUSH0 REVERT JUMPDEST PUSH0 PUSH0 REVERT JUMPDEST PUSH0 DUP2 SWAP1 POP SWAP2 SWAP1 POP JUMP JUMPDEST PUSH2 0x2A1 DUP2 PUSH2 0x28F JUMP JUMPDEST DUP2 EQ PUSH2 0x2AB JUMPI PUSH0 PUSH0 REVERT JUMPDEST POP JUMP JUMPDEST PUSH0 DUP2 CALLDATALOAD SWAP1 POP PUSH2 0x2BC DUP2 PUSH2 0x298 JUMP JUMPDEST SWAP3 SWAP2 POP POP JUMP JUMPDEST PUSH0 PUSH0 REVERT JUMPDEST PUSH0 PUSH0 REVERT JUMPDEST PUSH0 PUSH1 0x1F NOT PUSH1 0x1F DUP4 ADD AND SWAP1 POP SWAP2 SWAP1 POP JUMP JUMPDEST PUSH32 0x4E487B7100000000000000000000000000000000000000000000000000000000 PUSH0 MSTORE PUSH1 0x41 PUSH1 0x4 MSTORE PUSH1 0x24 PUSH0 REVERT JUMPDEST PUSH2 0x310 DUP3 PUSH2 0x2CA JUMP JUMPDEST DUP2 ADD DUP2 DUP2 LT PUSH8 0xFFFFFFFFFFFFFFFF DUP3 GT OR ISZERO PUSH2 0x32F JUMPI PUSH2 0x32E PUSH2 0x2DA JUMP JUMPDEST JUMPDEST DUP1 PUSH1 0x40 MSTORE POP POP POP JUMP JUMPDEST PUSH0 PUSH2 0x341 PUSH2 0x27E JUMP JUMPDEST SWAP1 POP PUSH2 0x34D DUP3 DUP3 PUSH2 0x307 JUMP JUMPDEST SWAP2 SWAP1 POP JUMP JUMPDEST PUSH0 PUSH8 0xFFFFFFFFFFFFFFFF DUP3 GT ISZERO PUSH2 0x36C JUMPI PUSH2 0x36B PUSH2 0x2DA JUMP JUMPDEST JUMPDEST PUSH2 0x375 DUP3 PUSH2 0x2CA JUMP JUMPDEST SWAP1 POP PUSH1 0x20 DUP2 ADD SWAP1 POP SWAP2 SWAP1 POP JUMP JUMPDEST DUP3 DUP2 DUP4 CALLDATACOPY PUSH0 DUP4 DUP4 ADD MSTORE POP POP POP JUMP JUMPDEST PUSH0 PUSH2 0x3A2 PUSH2 0x39D DUP5 PUSH2 0x352 JUMP JUMPDEST PUSH2 0x338 JUMP JUMPDEST SWAP1 POP DUP3 DUP2 MSTORE PUSH1 0x20 DUP2 ADD DUP5 DUP5 DUP5 ADD GT ISZERO PUSH2 0x3BE JUMPI PUSH2 0x3BD PUSH2 0x2C6 JUMP JUMPDEST JUMPDEST PUSH2 0x3C9 DUP5 DUP3 DUP6 PUSH2 0x382 JUMP JUMPDEST POP SWAP4 SWAP3 POP POP POP JUMP JUMPDEST PUSH0 DUP3 PUSH1 0x1F DUP4 ADD SLT PUSH2 0x3E5 JUMPI PUSH2 0x3E4 PUSH2 0x2C2 JUMP JUMPDEST JUMPDEST DUP2 CALLDATALOAD PUSH2 0x3F5 DUP5 DUP3 PUSH1 0x20 DUP7 ADD PUSH2 0x390 JUMP JUMPDEST SWAP2 POP POP SWAP3 SWAP2 POP POP JUMP JUMPDEST PUSH0 PUSH0 PUSH0 PUSH1 0x60 DUP5 DUP7 SUB SLT ISZERO PUSH2 0x415 JUMPI PUSH2 0x414 PUSH2 0x287 JUMP JUMPDEST JUMPDEST PUSH0 PUSH2 0x422 DUP7 DUP3 DUP8 ADD PUSH2 0x2AE JUMP JUMPDEST SWAP4 POP POP PUSH1 0x20 PUSH2 0x433 DUP7 DUP3 DUP8 ADD PUSH2 0x2AE JUMP JUMPDEST SWAP3 POP POP PUSH1 0x40 DUP5 ADD CALLDATALOAD PUSH8 0xFFFFFFFFFFFFFFFF DUP2 GT ISZERO PUSH2 0x454 JUMPI PUSH2 0x453 PUSH2 0x28B JUMP JUMPDEST JUMPDEST PUSH2 0x460 DUP7 DUP3 DUP8 ADD PUSH2 0x3D1 JUMP JUMPDEST SWAP2 POP POP SWAP3 POP SWAP3 POP SWAP3 JUMP JUMPDEST PUSH0 PUSH1 0x20 DUP3 DUP5 SUB SLT ISZERO PUSH2 0x47F JUMPI PUSH2 0x47E PUSH2 0x287 JUMP JUMPDEST JUMPDEST PUSH0 PUSH2 0x48C DUP5 DUP3 DUP6 ADD PUSH2 0x2AE JUMP JUMPDEST SWAP2 POP POP SWAP3 SWAP2 POP POP JUMP JUMPDEST PUSH0 DUP2 ISZERO ISZERO SWAP1 POP SWAP2 SWAP1 POP JUMP JUMPDEST PUSH2 0x4A9 DUP2 PUSH2 0x495 JUMP JUMPDEST DUP3 MSTORE POP POP JUMP JUMPDEST PUSH0 PUSH1 0x20 DUP3 ADD SWAP1 POP PUSH2 0x4C2 PUSH0 DUP4 ADD DUP5 PUSH2 0x4A0 JUMP JUMPDEST SWAP3 SWAP2 POP POP JUMP JUMPDEST PUSH0 DUP3 DUP3 MSTORE PUSH1 0x20 DUP3 ADD SWAP1 POP SWAP3 SWAP2 POP POP JUMP JUMPDEST PUSH32 0x7369676E617475726520616C7265616479207075626C69736865640000000000 PUSH0 DUP3 ADD MSTORE POP JUMP JUMPDEST PUSH0 PUSH2 0x50C PUSH1 0x1B DUP4 PUSH2 0x4C8 JUMP JUMPDEST SWAP2 POP PUSH2 0x517 DUP3 PUSH2 0x4D8 JUMP JUMPDEST PUSH1 0x20 DUP3 ADD SWAP1 POP SWAP2 SWAP1 POP JUMP JUMPDEST PUSH0 PUSH1 0x20 DUP3 ADD SWAP1 POP DUP2 DUP2 SUB PUSH0 DUP4 ADD MSTORE PUSH2 0x539 DUP2 PUSH2 0x500 JUMP JUMPDEST SWAP1 POP SWAP2 SWAP1 POP JUMP JUMPDEST PUSH32 0x636861696E206964206D69736D61746368000000000000000000000000000000 PUSH0 DUP3 ADD MSTORE POP JUMP JUMPDEST PUSH0 PUSH2 0x574 PUSH1 0x11 DUP4 PUSH2 0x4C8 JUMP JUMPDEST SWAP2 POP PUSH2 0x57F DUP3 PUSH2 0x540 JUMP JUMPDEST PUSH1 0x20 DUP3 ADD SWAP1 POP SWAP2 SWAP1 POP JUMP JUMPDEST PUSH0 PUSH1 0x20 DUP3 ADD SWAP1 POP DUP2 DUP2 SUB PUSH0 DUP4 ADD MSTORE PUSH2 0x5A1 DUP2 PUSH2 0x568 JUMP JUMPDEST SWAP1 POP SWAP2 SWAP1 POP JUMP JUMPDEST PUSH0 DUP2 SWAP1 POP SWAP2 SWAP1 POP JUMP JUMPDEST PUSH2 0x5BA DUP2 PUSH2 0x5A8 JUMP JUMPDEST DUP3 MSTORE POP POP JUMP JUMPDEST PUSH0 DUP2 MLOAD SWAP1 POP SWAP2 SWAP1 POP JUMP JUMPDEST PUSH0 DUP3 DUP3 MSTORE PUSH1 0x20 DUP3 ADD SWAP1 POP SWAP3 SWAP2 POP POP JUMP JUMPDEST DUP3 DUP2 DUP4 MCOPY PUSH0 DUP4 DUP4 ADD MSTORE POP POP POP JUMP JUMPDEST PUSH0 PUSH2 0x5F2 DUP3 PUSH2 0x5C0 JUMP JUMPDEST PUSH2 0x5FC DUP2 DUP6 PUSH2 0x5CA JUMP JUMPDEST SWAP4 POP PUSH2 0x60C DUP2 DUP6 PUSH1 0x20 DUP7 ADD PUSH2 0x5DA JUMP JUMPDEST PUSH2 0x615 DUP2 PUSH2 0x2CA JUMP JUMPDEST DUP5 ADD SWAP2 POP POP SWAP3 SWAP2 POP POP JUMP JUMPDEST PUSH0 PUSH1 0x40 DUP3 ADD SWAP1 POP PUSH2 0x633 PUSH0 DUP4 ADD DUP6 PUSH2 0x5B1 JUMP JUMPDEST DUP2 DUP2 SUB PUSH1 0x20 DUP4 ADD MSTORE PUSH2 0x645 DUP2 DUP5 PUSH2 0x5E8 JUMP JUMPDEST SWAP1 POP SWAP4 SWAP3 POP POP POP JUMP INVALID LOG2 PUSH5 0x6970667358 0x22 SLT KECCAK256 LT 0xCC SWAP14 PUSH32 0xF8C000D5F975A52678ABCB27B9F7881DBCB3EEF3C60E72F8341EE6FB64736F6C PUSH4 0x4300081E STOP CALLER "
		},
		"gasEstimates": {
			"creation": {
				"codeDepositCost": "333600",
				"executionCost": "infinite",
				"totalCost": "infinite"
			},
			"external": {
				"CHAIN_ID()": "infinite",
				"isNotarized(bytes32)": "2831",
				"notarize(bytes32,bytes32,bytes)": "infinite"
			}
		},
		"methodIdentifiers": {
			"CHAIN_ID()": "85e1f4d0",
			"isNotarized(bytes32)": "fe6ad6c6",
			"notarize(bytes32,bytes32,bytes)": "d43cd395"
		}
	},
	"abi": [
		{
			"anonymous": false,
			"inputs": [
				{
					"indexed": false,
					"internalType": "uint256",
					"name": "time",
					"type": "uint256"
				},
				{
					"indexed": true,
					"internalType": "address",
					"name": "signer",
					"type": "address"
				},
				{
					"indexed": true,
					"internalType": "bytes32",
					"name": "board",
					"type": "bytes32"
				},
				{
					"indexed": false,
					"internalType": "bytes",
					"name": "data",
					"type": "bytes"
				}
			],
			"name": "Signature",
			"type": "event"
		},
		{
			"inputs": [],
			"name": "CHAIN_ID",
			"outputs": [
				{
					"internalType": "uint32",
					"name": "",
					"type": "uint32"
				}
			],
			"stateMutability": "view",
			"type": "function"
		},
		{
			"inputs": [
				{
					"internalType": "bytes32",
					"name": "nonce",
					"type": "bytes32"
				}
			],
			"name": "isNotarized",
			"outputs": [
				{
					"internalType": "bool",
					"name": "",
					"type": "bool"
				}
			],
			"stateMutability": "view",
			"type": "function"
		},
		{
			"inputs": [
				{
					"internalType": "bytes32",
					"name": "board",
					"type": "bytes32"
				},
				{
					"internalType": "bytes32",
					"name": "nonce",
					"type": "bytes32"
				},
				{
					"internalType": "bytes",
					"name": "data",
					"type": "bytes"
				}
			],
			"name": "notarize",
			"outputs": [],
			"stateMutability": "nonpayable",
			"type": "function"
		}
	]
}