{"abi":[{"type":"function","name":"CHAIN_ID","inputs":[],"outputs":[{"name":"","type":"uint32","internalType":"uint32"}],"stateMutability":"view"},{"type":"function","name":"isNotarized","inputs":[{"name":"nonce","type":"bytes32","internalType":"bytes32"}],"outputs":[{"name":"","type":"bool","internalType":"bool"}],"stateMutability":"view"},{"type":"function","name":"notarize","inputs":[{"name":"board","type":"bytes32","internalType":"bytes32"},{"name":"nonce","type":"bytes32","internalType":"bytes32"},{"name":"data","type":"bytes","internalType":"bytes"}],"outputs":[],"stateMutability":"nonpayable"},{"type":"event","name":"Signature","inputs":[{"name":"time","type":"uint256","indexed":false,"internalType":"uint256"},{"name":"signer","type":"address","indexed":true,"internalType":"address"},{"name":"nonce","type":"bytes32","indexed":true,"internalType":"bytes32"},{"name":"board","type":"bytes32","indexed":true,"internalType":"bytes32"},{"name":"data","type":"bytes","indexed":false,"internalType":"bytes"}],"anonymous":false}],"bytecode":{"object":"0x60a06040524663ffffffff1660809063ffffffff168152503480156021575f5ffd5b506080516106856100405f395f818160af015261013701526106855ff3fe608060405234801561000f575f5ffd5b506004361061003f575f3560e01c806385e1f4d014610043578063d43cd39514610061578063fe6ad6c61461007d575b5f5ffd5b61004b6100ad565b6040516100589190610266565b60405180910390f35b61007b600480360381019061007691906103ff565b6100d1565b005b6100976004803603810190610092919061046b565b610223565b6040516100a491906104b0565b60405180910390f35b7f000000000000000000000000000000000000000000000000000000000000000081565b5f5f8381526020019081526020015f205f9054906101000a900460ff161561012e576040517f08c379a000000000000000000000000000000000000000000000000000000000815260040161012590610523565b60405180910390fd5b5f8260e01c90507f000000000000000000000000000000000000000000000000000000000000000063ffffffff168163ffffffff16146101a3576040517f08c379a000000000000000000000000000000000000000000000000000000000815260040161019a9061058b565b60405180910390fd5b60015f5f8581526020019081526020015f205f6101000a81548160ff02191690831515021790555083833373ffffffffffffffffffffffffffffffffffffffff167f0afe2005551fd230afe8362b7b6f86cf0d5bfed044f98466fc47acb570a51bae4286604051610215929190610621565b60405180910390a450505050565b5f5f5f8381526020019081526020015f205f9054906101000a900460ff169050919050565b5f63ffffffff82169050919050565b61026081610248565b82525050565b5f6020820190506102795f830184610257565b92915050565b5f604051905090565b5f5ffd5b5f5ffd5b5f819050919050565b6102a281610290565b81146102ac575f5ffd5b50565b5f813590506102bd81610299565b92915050565b5f5ffd5b5f5ffd5b5f601f19601f8301169050919050565b7f4e487b71000000000000000000000000000000000000000000000000000000005f52604160045260245ffd5b610311826102cb565b810181811067ffffffffffffffff821117156103305761032f6102db565b5b80604052505050565b5f61034261027f565b905061034e8282610308565b919050565b5f67ffffffffffffffff82111561036d5761036c6102db565b5b610376826102cb565b9050602081019050919050565b828183375f83830152505050565b5f6103a361039e84610353565b610339565b9050828152602081018484840111156103bf576103be6102c7565b5b6103ca848285610383565b509392505050565b5f82601f8301126103e6576103e56102c3565b5b81356103f6848260208601610391565b91505092915050565b5f5f5f6060848603121561041657610415610288565b5b5f610423868287016102af565b9350506020610434868287016102af565b925050604084013567ffffffffffffffff8111156104555761045461028c565b5b610461868287016103d2565b9150509250925092565b5f602082840312156104805761047f610288565b5b5f61048d848285016102af565b91505092915050565b5f8115159050919050565b6104aa81610496565b82525050565b5f6020820190506104c35f8301846104a1565b92915050565b5f82825260208201905092915050565b7f7369676e617475726520616c7265616479207075626c697368656400000000005f82015250565b5f61050d601b836104c9565b9150610518826104d9565b602082019050919050565b5f6020820190508181035f83015261053a81610501565b9050919050565b7f636861696e206964206d69736d617463680000000000000000000000000000005f82015250565b5f6105756011836104c9565b915061058082610541565b602082019050919050565b5f6020820190508181035f8301526105a281610569565b9050919050565b5f819050919050565b6105bb816105a9565b82525050565b5f81519050919050565b5f82825260208201905092915050565b8281835e5f83830152505050565b5f6105f3826105c1565b6105fd81856105cb565b935061060d8185602086016105db565b610616816102cb565b840191505092915050565b5f6040820190506106345f8301856105b2565b818103602083015261064681846105e9565b9050939250505056fea2646970667358221220179a5f2ef6df4ebb1316e624b7f54e0ae6a88348c3c7c26798911d807b9213b564736f6c634300081e0033","linkReferences":{}},"methodIdentifiers":{"CHAIN_ID()":"85e1f4d0","isNotarized(bytes32)":"fe6ad6c6","notarize(bytes32,bytes32,bytes)":"d43cd395"},"id":0}