{"abi":[{"type":"function","name":"isRegistered","inputs":[{"name":"sig_","type":"bytes32","internalType":"bytes32"}],"outputs":[{"name":"","type":"bool","internalType":"bool"}],"stateMutability":"view"},{"type":"function","name":"registerSignature","inputs":[{"name":"sig_","type":"bytes32","internalType":"bytes32"},{"name":"data_","type":"bytes","internalType":"bytes"}],"outputs":[],"stateMutability":"nonpayable"},{"type":"event","name":"Signature","inputs":[{"name":"time","type":"uint256","indexed":false,"internalType":"uint256"},{"name":"signer","type":"address","indexed":true,"internalType":"address"},{"name":"signature","type":"bytes32","indexed":true,"internalType":"bytes32"},{"name":"data","type":"bytes","indexed":false,"internalType":"bytes"}],"anonymous":false}],"bytecode":{"object":"0x6080604052348015600e575f5ffd5b5061050f8061001c5f395ff3fe608060405234801561000f575f5ffd5b5060043610610034575f3560e01c806327258b2214610038578063a1eba4d014610068575b5f5ffd5b610052600480360381019061004d91906101c7565b610084565b60405161005f919061020c565b60405180910390f35b610082600480360381019061007d9190610361565b6100a9565b005b5f5f5f8381526020019081526020015f205f9054906101000a900460ff169050919050565b5f5f8381526020019081526020015f205f9054906101000a900460ff1615610106576040517f08c379a00000000000000000000000000000000000000000000000000000000081526004016100fd90610415565b60405180910390fd5b60015f5f8481526020019081526020015f205f6101000a81548160ff021916908315150217905550813373ffffffffffffffffffffffffffffffffffffffff167f941876eaeb3c2aecc9762b7896052e2c4aa9cd0fa30da5f973b4a648a916700242846040516101779291906104ab565b60405180910390a35050565b5f604051905090565b5f5ffd5b5f5ffd5b5f819050919050565b6101a681610194565b81146101b0575f5ffd5b50565b5f813590506101c18161019d565b92915050565b5f602082840312156101dc576101db61018c565b5b5f6101e9848285016101b3565b91505092915050565b5f8115159050919050565b610206816101f2565b82525050565b5f60208201905061021f5f8301846101fd565b92915050565b5f5ffd5b5f5ffd5b5f601f19601f8301169050919050565b7f4e487b71000000000000000000000000000000000000000000000000000000005f52604160045260245ffd5b6102738261022d565b810181811067ffffffffffffffff821117156102925761029161023d565b5b80604052505050565b5f6102a4610183565b90506102b0828261026a565b919050565b5f67ffffffffffffffff8211156102cf576102ce61023d565b5b6102d88261022d565b9050602081019050919050565b828183375f83830152505050565b5f610305610300846102b5565b61029b565b90508281526020810184848401111561032157610320610229565b5b61032c8482856102e5565b509392505050565b5f82601f83011261034857610347610225565b5b81356103588482602086016102f3565b91505092915050565b5f5f604083850312156103775761037661018c565b5b5f610384858286016101b3565b925050602083013567ffffffffffffffff8111156103a5576103a4610190565b5b6103b185828601610334565b9150509250929050565b5f82825260208201905092915050565b7f7369676e617475726520616c7265616479207075626c697368656400000000005f82015250565b5f6103ff601b836103bb565b915061040a826103cb565b602082019050919050565b5f6020820190508181035f83015261042c816103f3565b9050919050565b5f819050919050565b61044581610433565b82525050565b5f81519050919050565b5f82825260208201905092915050565b8281835e5f83830152505050565b5f61047d8261044b565b6104878185610455565b9350610497818560208601610465565b6104a08161022d565b840191505092915050565b5f6040820190506104be5f83018561043c565b81810360208301526104d08184610473565b9050939250505056fea2646970667358221220bdc7e62684eb5254e3917c771bbe81684e3907fda75aae73c5e5bb7fd0036c5164736f6c634300081e0033","linkReferences":{}},"methodIdentifiers":{"isRegistered(bytes32)":"27258b22","registerSignature(bytes32,bytes)":"a1eba4d0"},"id":1}