{"abi":[{"type":"constructor","inputs":[{"name":"_opensigUserRegistry","type":"address","internalType":"contract IUserRegistry"}],"stateMutability":"nonpayable"},{"type":"function","name":"BURNER_ROLE","inputs":[],"outputs":[{"name":"","type":"bytes32","internalType":"bytes32"}],"stateMutability":"view"},{"type":"function","name":"DEFAULT_ADMIN_ROLE","inputs":[],"outputs":[{"name":"","type":"bytes32","internalType":"bytes32"}],"stateMutability":"view"},{"type":"function","name":"MINTER_ROLE","inputs":[],"outputs":[{"name":"","type":"bytes32","internalType":"bytes32"}],"stateMutability":"view"},{"type":"function","name":"PAYMASTER_ROLE","inputs":[],"outputs":[{"name":"","type":"bytes32","internalType":"bytes32"}],"stateMutability":"view"},{"type":"function","name":"allowance","inputs":[{"name":"","type":"address","internalType":"address"},{"name":"","type":"address","internalType":"address"}],"outputs":[{"name":"","type":"uint256","internalType":"uint256"}],"stateMutability":"pure"},{"type":"function","name":"approve","inputs":[{"name":"","type":"address","internalType":"address"},{"name":"","type":"uint256","internalType":"uint256"}],"outputs":[{"name":"","type":"bool","internalType":"bool"}],"stateMutability":"pure"},{"type":"function","name":"balanceOf","inputs":[{"name":"account","type":"address","internalType":"address"}],"outputs":[{"name":"","type":"uint256","internalType":"uint256"}],"stateMutability":"view"},{"type":"function","name":"burnAll","inputs":[],"outputs":[],"stateMutability":"nonpayable"},{"type":"function","name":"burnClosedAccount","inputs":[{"name":"account","type":"address","internalType":"address"}],"outputs":[],"stateMutability":"nonpayable"},{"type":"function","name":"decimals","inputs":[],"outputs":[{"name":"","type":"uint8","internalType":"uint8"}],"stateMutability":"pure"},{"type":"function","name":"getRoleAdmin","inputs":[{"name":"role","type":"bytes32","internalType":"bytes32"}],"outputs":[{"name":"","type":"bytes32","internalType":"bytes32"}],"stateMutability":"view"},{"type":"function","name":"grantRole","inputs":[{"name":"role","type":"bytes32","internalType":"bytes32"},{"name":"account","type":"address","internalType":"address"}],"outputs":[],"stateMutability":"nonpayable"},{"type":"function","name":"hasRole","inputs":[{"name":"role","type":"bytes32","internalType":"bytes32"},{"name":"account","type":"address","internalType":"address"}],"outputs":[{"name":"","type":"bool","internalType":"bool"}],"stateMutability":"view"},{"type":"function","name":"mint","inputs":[{"name":"account","type":"address","internalType":"address"},{"name":"value","type":"uint256","internalType":"uint256"},{"name":"purpose","type":"bytes32","internalType":"bytes32"}],"outputs":[],"stateMutability":"nonpayable"},{"type":"function","name":"mintAll","inputs":[{"name":"mints","type":"tuple[]","internalType":"struct MintAction[]","components":[{"name":"account","type":"address","internalType":"address"},{"name":"value","type":"uint256","internalType":"uint256"},{"name":"purpose","type":"bytes32","internalType":"bytes32"}]}],"outputs":[],"stateMutability":"nonpayable"},{"type":"function","name":"name","inputs":[],"outputs":[{"name":"","type":"string","internalType":"string"}],"stateMutability":"pure"},{"type":"function","name":"opensigUserRegistry","inputs":[],"outputs":[{"name":"","type":"address","internalType":"contract IUserRegistry"}],"stateMutability":"view"},{"type":"function","name":"renounceRole","inputs":[{"name":"role","type":"bytes32","internalType":"bytes32"},{"name":"callerConfirmation","type":"address","internalType":"address"}],"outputs":[],"stateMutability":"nonpayable"},{"type":"function","name":"revokeRole","inputs":[{"name":"role","type":"bytes32","internalType":"bytes32"},{"name":"account","type":"address","internalType":"address"}],"outputs":[],"stateMutability":"nonpayable"},{"type":"function","name":"spend","inputs":[{"name":"user","type":"address","internalType":"address"},{"name":"value","type":"uint256","internalType":"uint256"}],"outputs":[],"stateMutability":"nonpayable"},{"type":"function","name":"supportsInterface","inputs":[{"name":"interfaceId","type":"bytes4","internalType":"bytes4"}],"outputs":[{"name":"","type":"bool","internalType":"bool"}],"stateMutability":"view"},{"type":"function","name":"symbol","inputs":[],"outputs":[{"name":"","type":"string","internalType":"string"}],"stateMutability":"pure"},{"type":"function","name":"totalSupply","inputs":[],"outputs":[{"name":"","type":"uint256","internalType":"uint256"}],"stateMutability":"view"},{"type":"function","name":"transfer","inputs":[{"name":"","type":"address","internalType":"address"},{"name":"","type":"uint256","internalType":"uint256"}],"outputs":[{"name":"","type":"bool","internalType":"bool"}],"stateMutability":"pure"},{"type":"function","name":"transferFrom","inputs":[{"name":"","type":"address","internalType":"address"},{"name":"","type":"address","internalType":"address"},{"name":"","type":"uint256","internalType":"uint256"}],"outputs":[{"name":"","type":"bool","internalType":"bool"}],"stateMutability":"pure"},{"type":"event","name":"AccountBurned","inputs":[{"name":"user","type":"address","indexed":true,"internalType":"address"},{"name":"amount","type":"uint256","indexed":false,"internalType":"uint256"}],"anonymous":false},{"type":"event","name":"Approval","inputs":[{"name":"owner","type":"address","indexed":true,"internalType":"address"},{"name":"spender","type":"address","indexed":true,"internalType":"address"},{"name":"value","type":"uint256","indexed":false,"internalType":"uint256"}],"anonymous":false},{"type":"event","name":"RoleAdminChanged","inputs":[{"name":"role","type":"bytes32","indexed":true,"internalType":"bytes32"},{"name":"previousAdminRole","type":"bytes32","indexed":true,"internalType":"bytes32"},{"name":"newAdminRole","type":"bytes32","indexed":true,"internalType":"bytes32"}],"anonymous":false},{"type":"event","name":"RoleGranted","inputs":[{"name":"role","type":"bytes32","indexed":true,"internalType":"bytes32"},{"name":"account","type":"address","indexed":true,"internalType":"address"},{"name":"sender","type":"address","indexed":true,"internalType":"address"}],"anonymous":false},{"type":"event","name":"RoleRevoked","inputs":[{"name":"role","type":"bytes32","indexed":true,"internalType":"bytes32"},{"name":"account","type":"address","indexed":true,"internalType":"address"},{"name":"sender","type":"address","indexed":true,"internalType":"address"}],"anonymous":false},{"type":"event","name":"Transfer","inputs":[{"name":"from","type":"address","indexed":true,"internalType":"address"},{"name":"to","type":"address","indexed":true,"internalType":"address"},{"name":"value","type":"uint256","indexed":false,"internalType":"uint256"}],"anonymous":false},{"type":"event","name":"TransferWithPurpose","inputs":[{"name":"from","type":"address","indexed":true,"internalType":"address"},{"name":"to","type":"address","indexed":true,"internalType":"address"},{"name":"value","type":"uint256","indexed":false,"internalType":"uint256"},{"name":"purpose","type":"bytes32","indexed":false,"internalType":"bytes32"}],"anonymous":false},{"type":"error","name":"AccessControlBadConfirmation","inputs":[]},{"type":"error","name":"AccessControlUnauthorizedAccount","inputs":[{"name":"account","type":"address","internalType":"address"},{"name":"neededRole","type":"bytes32","internalType":"bytes32"}]},{"type":"error","name":"ERC20InsufficientAllowance","inputs":[{"name":"spender","type":"address","internalType":"address"},{"name":"allowance","type":"uint256","internalType":"uint256"},{"name":"needed","type":"uint256","internalType":"uint256"}]},{"type":"error","name":"ERC20InsufficientBalance","inputs":[{"name":"sender","type":"address","internalType":"address"},{"name":"balance","type":"uint256","internalType":"uint256"},{"name":"needed","type":"uint256","internalType":"uint256"}]},{"type":"error","name":"ERC20InvalidApprover","inputs":[{"name":"approver","type":"address","internalType":"address"}]},{"type":"error","name":"ERC20InvalidReceiver","inputs":[{"name":"receiver","type":"address","internalType":"address"}]},{"type":"error","name":"ERC20InvalidSender","inputs":[{"name":"sender","type":"address","internalType":"address"}]},{"type":"error","name":"ERC20InvalidSpender","inputs":[{"name":"spender","type":"address","internalType":"address"}]},{"type":"error","name":"ERC20TransferNotSupported","inputs":[]},{"type":"error","name":"Overflow","inputs":[]},{"type":"error","name":"UserNotDeregistered","inputs":[]}],"bytecode":{"object":"0x60803461009257601f6111ed38819003918201601f19168301916001600160401b038311848410176100965780849260209460405283398101031261009257516001600160a01b0381169081900361009257600180546001600160a01b03191691909117905561006e336100aa565b5061007833610120565b50610082336101b3565b50604051610f2690816102478239f35b5f80fd5b634e487b7160e01b5f52604160045260245ffd5b6001600160a01b0381165f9081525f5160206111cd5f395f51905f52602052604090205460ff1661011b576001600160a01b03165f8181525f5160206111cd5f395f51905f5260205260408120805460ff191660011790553391905f51602061116d5f395f51905f528180a4600190565b505f90565b6001600160a01b0381165f9081525f51602061118d5f395f51905f52602052604090205460ff1661011b576001600160a01b03165f8181525f51602061118d5f395f51905f5260205260408120805460ff191660011790553391907f9f2df0fed2c77648de5860a4cc508cd0818c85b8b8a1ab4ceeef8d981c8956a6905f51602061116d5f395f51905f529080a4600190565b6001600160a01b0381165f9081525f5160206111ad5f395f51905f52602052604090205460ff1661011b576001600160a01b03165f8181525f5160206111ad5f395f51905f5260205260408120805460ff191660011790553391907f3c11d16cbaffd01df69ce1c404f6340ee057498f5f00246190ea54220576a848905f51602061116d5f395f51905f529080a460019056fe6080806040526004361015610012575f80fd5b5f3560e01c90816301ffc9a7146109f85750806306fdde03146109a1578063095ea7b31461058357806318160ddd146109845780631e458bee1461095357806323b872dd14610908578063248a9ca3146108d6578063282c51f31461089c5780632f2ff15d1461085f578063313ce567146105ae57806336568abe1461080257806337adfa36146107c85780636601b5781461072b57806370a08231146106f357806391d14854146106aa57806395d89b411461064f5780639975038c146105c8578063a217fddf146105ae578063a44847a314610588578063a9059cbb14610583578063af7d6ca3146103d4578063d53913931461039a578063d547741f14610358578063dd62ed3e1461032b5763e7a061b51461012f575f80fd5b346102dd5760203660031901126102dd57610148610ac0565b335f9081527f6bc61e8d8a7feeba9a3dfbe950298fbca23cf0136992f9ef92f1b5529ac870ae602052604090205460ff16156102f4576001600160a01b0360015416906040517f8020fc1f0000000000000000000000000000000000000000000000000000000081526020816024816001600160a01b038616968760048301525afa9081156102e9575f916102aa575b501561028257815f526002602052817ffc70057f16f16eadb048dd86cbb1f146c1dd846499d64e4903e83e4798d070ad602060405f2054604051908152a2815f52600260205260405f2054911561025657610254917fc00000000000000000000000000000000000000000000000000000000000000091610de6565b005b7f96c6fd1e000000000000000000000000000000000000000000000000000000005f525f60045260245ffd5b7f3ba11c30000000000000000000000000000000000000000000000000000000005f5260045ffd5b90506020813d6020116102e1575b816102c560209383610b05565b810103126102dd575180151581036102dd575f6101d8565b5f80fd5b3d91506102b8565b6040513d5f823e3d90fd5b63e2517d3f60e01b5f52336004527f3c11d16cbaffd01df69ce1c404f6340ee057498f5f00246190ea54220576a84860245260445ffd5b346102dd5760403660031901126102dd57610344610ac0565b5061034d610ad6565b5060206040515f8152f35b346102dd5760403660031901126102dd57610254600435610377610ad6565b90610395610390825f525f602052600160405f20015490565b610baa565b610d42565b346102dd575f3660031901126102dd5760206040517f9f2df0fed2c77648de5860a4cc508cd0818c85b8b8a1ab4ceeef8d981c8956a68152f35b346102dd5760403660031901126102dd576103ed610ac0565b335f9081527f2ddc2e9b8a6fa1706627232881574346c5fd95dd2b63307b9f3e8ebd116cbb486020526040902054602435919060ff161561054c576001600160a01b0316806104e65760035491826104458282610dc5565b106104be576040816104797fb9d9c96f028d37be82972747241e131136fdf41bfbac749eba4a4c7e29f4cd97935f96610dc5565b6003555b806003540360035584847fddf252ad1be2c89b69c2b068fc378daa952ba7f163c4a11628f55a4df523b3ef60208551858152a38151908152846020820152a3005b7f35278d12000000000000000000000000000000000000000000000000000000005f5260045ffd5b805f52600260205260405f2054828110610533576040835f947fb9d9c96f028d37be82972747241e131136fdf41bfbac749eba4a4c7e29f4cd97938587526002602052038286205561047d565b9063391434e360e21b5f5260045260245260445260645ffd5b63e2517d3f60e01b5f52336004527f3a43d4210774a09c5d26191d1150219028070cec811f3e6f8ab498268dd6140c60245260445ffd5b610aec565b346102dd575f3660031901126102dd5760206001600160a01b0360015416604051908152f35b346102dd575f3660031901126102dd5760206040515f8152f35b346102dd575f3660031901126102dd57335f52600260205260405f20546040519081527ffc70057f16f16eadb048dd86cbb1f146c1dd846499d64e4903e83e4798d070ad60203392a2335f52600260205260405f20543315610256577f80000000000000000000000000000000000000000000000000000000000000006102549133610de6565b346102dd575f3660031901126102dd576106a6604051610670604082610b05565b600481527f4f53494700000000000000000000000000000000000000000000000000000000602082015260405191829182610a96565b0390f35b346102dd5760403660031901126102dd576106c3610ad6565b6004355f525f6020526001600160a01b0360405f2091165f52602052602060ff60405f2054166040519015158152f35b346102dd5760203660031901126102dd576001600160a01b03610714610ac0565b165f526002602052602060405f2054604051908152f35b346102dd5760203660031901126102dd5760043567ffffffffffffffff81116102dd57366023820112156102dd5780600401359067ffffffffffffffff82116102dd5736602460608402830101116102dd57610785610b3b565b5f5b82811015610254576060810282019060248201356001600160a01b03811681036102dd57826107c29160446064600196013592013590610bea565b01610787565b346102dd575f3660031901126102dd5760206040517f3a43d4210774a09c5d26191d1150219028070cec811f3e6f8ab498268dd6140c8152f35b346102dd5760403660031901126102dd5761081b610ad6565b336001600160a01b038216036108375761025490600435610d42565b7f6697b232000000000000000000000000000000000000000000000000000000005f5260045ffd5b346102dd5760403660031901126102dd5761025460043561087e610ad6565b90610897610390825f525f602052600160405f20015490565b610cb5565b346102dd575f3660031901126102dd5760206040517f3c11d16cbaffd01df69ce1c404f6340ee057498f5f00246190ea54220576a8488152f35b346102dd5760203660031901126102dd5760206109006004355f525f602052600160405f20015490565b604051908152f35b346102dd5760603660031901126102dd57610921610ac0565b5061092a610ad6565b507fba53a46a000000000000000000000000000000000000000000000000000000005f5260045ffd5b346102dd5760603660031901126102dd5761025461096f610ac0565b610977610b3b565b6044359060243590610bea565b346102dd575f3660031901126102dd576020600354604051908152f35b346102dd575f3660031901126102dd576106a66040516109c2604082610b05565b601981527f4f70656e536967205369676e6174757265204372656469747300000000000000602082015260405191829182610a96565b346102dd5760203660031901126102dd57600435907fffffffff0000000000000000000000000000000000000000000000000000000082168092036102dd57817f7965db0b0000000000000000000000000000000000000000000000000000000060209314908115610a6c575b5015158152f35b7f01ffc9a70000000000000000000000000000000000000000000000000000000091501483610a65565b602060409281835280519182918282860152018484015e5f828201840152601f01601f1916010190565b600435906001600160a01b03821682036102dd57565b602435906001600160a01b03821682036102dd57565b346102dd5760403660031901126102dd5761092a610ac0565b90601f8019910116810190811067ffffffffffffffff821117610b2757604052565b634e487b7160e01b5f52604160045260245ffd5b335f9081527f0781d7cac9c378efa22a7481e4d4d29704a680ddf504b3bc50b517700ee11e6c602052604090205460ff1615610b7357565b63e2517d3f60e01b5f52336004527f9f2df0fed2c77648de5860a4cc508cd0818c85b8b8a1ab4ceeef8d981c8956a660245260445ffd5b805f525f60205260405f206001600160a01b0333165f5260205260ff60405f20541615610bd45750565b63e2517d3f60e01b5f523360045260245260445ffd5b6001600160a01b0316918215610c895760035480610c088482610dc5565b106104be57827fb9d9c96f028d37be82972747241e131136fdf41bfbac749eba4a4c7e29f4cd9792610c3d5f95604094610dc5565b600355858552600260205282852082815401905585857fddf252ad1be2c89b69c2b068fc378daa952ba7f163c4a11628f55a4df523b3ef60208651868152a382519182526020820152a3565b7fec442f05000000000000000000000000000000000000000000000000000000005f525f60045260245ffd5b805f525f60205260405f206001600160a01b0383165f5260205260ff60405f205416155f14610d3c57805f525f60205260405f206001600160a01b0383165f5260205260405f20600160ff198254161790556001600160a01b03339216907f2f8788117e7eff1d82e926ec794901d17c78024a50270940304540a733656f0d5f80a4600190565b50505f90565b805f525f60205260405f206001600160a01b0383165f5260205260ff60405f2054165f14610d3c57805f525f60205260405f206001600160a01b0383165f5260205260405f2060ff1981541690556001600160a01b03339216907ff6391f5c32d9c69d2a47ea670b442974b53935d1edc7fd64eb21e047a839171b5f80a4600190565b91908201809211610dd257565b634e487b7160e01b5f52601160045260245ffd5b6001600160a01b0390929192169081155f14610e835760035480610e0a8582610dc5565b106104be57837fb9d9c96f028d37be82972747241e131136fdf41bfbac749eba4a4c7e29f4cd9792610e3f5f96604094610dc5565b6003555b816003540360035585857fddf252ad1be2c89b69c2b068fc378daa952ba7f163c4a11628f55a4df523b3ef60208651868152a382519182526020820152a3565b815f94939452600260205260405f2054848110610ed557847fb9d9c96f028d37be82972747241e131136fdf41bfbac749eba4a4c7e29f4cd97925f959660409386885260026020520383872055610e43565b92505063391434e360e21b5f5260045260245260445260645ffdfea2646970667358221220d8ba91a6a71f4be0b75921038ebdafe58104ba885632526573daea59ea3814a564736f6c634300081d00332f8788117e7eff1d82e926ec794901d17c78024a50270940304540a733656f0d0781d7cac9c378efa22a7481e4d4d29704a680ddf504b3bc50b517700ee11e6c6bc61e8d8a7feeba9a3dfbe950298fbca23cf0136992f9ef92f1b5529ac870aead3228b676f7d3cd4284a5443f17f1962b36e491b30a40b2405849e597ba5fb5","linkReferences":{}},"methodIdentifiers":{"BURNER_ROLE()":"282c51f3","DEFAULT_ADMIN_ROLE()":"a217fddf","MINTER_ROLE()":"d5391393","PAYMASTER_ROLE()":"37adfa36","allowance(address,address)":"dd62ed3e","approve(address,uint256)":"095ea7b3","balanceOf(address)":"70a08231","burnAll()":"9975038c","burnClosedAccount(address)":"e7a061b5","decimals()":"313ce567","getRoleAdmin(bytes32)":"248a9ca3","grantRole(bytes32,address)":"2f2ff15d","hasRole(bytes32,address)":"91d14854","mint(address,uint256,bytes32)":"1e458bee","mintAll((address,uint256,bytes32)[])":"6601b578","name()":"06fdde03","opensigUserRegistry()":"a44847a3","renounceRole(bytes32,address)":"36568abe","revokeRole(bytes32,address)":"d547741f","spend(address,uint256)":"af7d6ca3","supportsInterface(bytes4)":"01ffc9a7","symbol()":"95d89b41","totalSupply()":"18160ddd","transfer(address,uint256)":"a9059cbb","transferFrom(address,address,uint256)":"23b872dd"},"id":8}